{
  "abi": [
    {
      "type": "function",
      "name": "getContractAddress",
      "inputs": [
        {
          "name": "contractName",
          "type": "string",
          "internalType": "string"
        }
      ],
      "outputs": [
        {
          "name": "",
          "type": "address",
          "internalType": "address"
        }
      ],
      "stateMutability": "view"
    },
    {
      "type": "function",
      "name": "setContract",
      "inputs": [
        {
          "name": "contractAddress",
          "type": "address",
          "internalType": "address"
        },
        {
          "name": "contractName",
          "type": "string",
          "internalType": "string"
        }
      ],
      "outputs": [],
      "stateMutability": "nonpayable"
    },
    {
      "type": "event",
      "name": "SetContractEvent",
      "inputs": [
        {
          "name": "contractAddress",
          "type": "address",
          "indexed": false,
          "internalType": "address"
        },
        {
          "name": "contractName",
          "type": "string",
          "indexed": false,
          "internalType": "string"
        }
      ],
      "anonymous": false
    }
  ],
  "bytecode": {
    "object": "0x60808060405234601557610214908161001a8239f35b5f80fdfe60806040526004361015610011575f80fd5b5f3560e01c806304433bbc1461010157631b1c2c7f1461002f575f80fd5b346100fd5760403660031901126100fd576004356001600160a01b038116908190036100fd576024359067ffffffffffffffff82116100fd5760606100997f8d32db8be4214ad2a32e6ae8c7dc8dbc43aff8635779cdc39abaf9d4d82929aa933690600401610162565b91604051835190602081818701938085835e81015f815203019020826bffffffffffffffffffffffff60a01b8254161790556040519384928352604060208401525180918160408501528484015e5f828201840152601f01601f19168101030190a1005b5f80fd5b346100fd5760203660031901126100fd5760043567ffffffffffffffff81116100fd576101346020913690600401610162565b8160405191805191829101835e5f90820190815281900382019020546040516001600160a01b039091168152f35b81601f820112156100fd5780359067ffffffffffffffff82116101ca5760405192601f8301601f19908116603f0116840167ffffffffffffffff8111858210176101ca57604052828452602083830101116100fd57815f926020809301838601378301015290565b634e487b7160e01b5f52604160045260245ffdfea264697066735822122042ac34a87c3e88880c35d4e22a61849c65e432e089b29558679a834f5f26173c64736f6c634300081c0033",
    "linkReferences": {}
  },
  "methodIdentifiers": {
    "getContractAddress(string)": "04433bbc",
    "setContract(address,string)": "1b1c2c7f"
  },
  "id": 23
}